:020000040800F2
:10000000005000200D0300085501000841010008C0
:100010003D0100082901000815010008000000004A
:10002000000000000000000000000000410800087F
:10003000110100080000000011060008DD0500089D
:100040000D0100080D0100080D0100080D01000858
:100050000D0100080D0100080D0100080D01000848
:100060000D0100080D0100080D0100080D01000838
:100070000D0100080D0100080D0100080D01000828
:100080000D0100080D0100080D0100080D01000818
:100090000D0100080D0100080D0100080D01000808
:1000A0000D0100080D0100080D0100080D010008F8
:1000B0000D0100080D0100080D0100080D010008E8
:1000C0000D0100080D0100080D0100080D010008D8
:1000D0000D0100080D0100080D0100080D010008C8
:1000E0000D0100080D0100080D01000800000000CE
:1000F0000000000000000000000000000000000000
:1001000000000000000000005FF808F100BEFEE7FC
:1001100000BEFEE71EF0040F0CBFEFF30880EFF304
:10012000098071467B4A10471EF0040F0CBFEFF3A5
:100130000880EFF309807146774A104700BEFEE75A
:100140001EF0040F0CBFEFF30880EFF30980714637
:10015000724A104700BEFEE780B582B0044688466A
:10016000084B5E6B9F6B9D6A074801F015F8CDF850
:1001700000803B4632462946204601F025F800BE65
:10018000FEE700BF00ED00E0881C000880B582B0EB
:1001900004468846084B5E6B9F6B9D6A074800F0DB
:1001A000FBFFCDF800803B4632462946204601F051
:1001B0000BF800BEFEE700BF00ED00E0981C000851
:1001C0002DE9F04182B004468846134B5E6B9F6B6D
:1001D0009D6A1B6B13F0020F03D00F4BDB6A002BE1
:1001E0000CDB0E4800F0D8FFCDF800803B463246CD
:1001F0002946204600F0E8FF00BEFEE74BF6AB6163
:1002000000F06EFF0028ECD0034B4FF00042DA62A2
:1002100002B0BDE8F08100BF00ED00E0A41C0008C2
:1002200000B583B000F070FF284B294A1360294ABB
:100230001360294B294A2A498B4204D2116819605C
:1002400004330432F7E7224B1A68264B9A4200D057
:10025000FEE7204B1A68244B9A42F9D11B4B234AE4
:100260001360234A1360234B02E000221A60043318
:10027000214A9342F9D31D4B1B6813B91C4B1B68D1
:1002800003B1FEE700F03CFF694601A800F07CFFE7
:100290001A4C1B4BE41AA4100025AC420ADC194C82
:1002A000194BE41AA4100025AC4209DC009901980E
:1002B00000F00CFE124B53F8253098470135ECE75F
:1002C000114B53F8253098470135EDE7BABADECA2D
:1002D000000000208800002000000020F01C000822
:1002E0008C00002078563412325476988C0000200E
:1002F000484600208C0000204C460020480300089F
:1003000048030008480300084803000808B5FFF741
:1003100087FF0000590100088D010008C101000895
:10032000F01C0008000000208C000020F01C0008D9
:1003300000000000000000008C0000204C4600205F
:080340000000000000000000B5
:10035000084B1B681B683BB1064B1B68DB68DB68FE
:100360005A68054B1A607047034B4FF0FF321A6012
:10037000704700BF1C010020D8450020144B1B68AB
:100380001BB1144B01221A60704710B4114B0022AC
:100390001A60114B1B68B3FA83F3DBB2C3F11F037E
:1003A0000E49142202FB03F28C18606840686060FA
:1003B00008320A44904201D141686160074A142121
:1003C00001FB03235B68DA68054B1A6010BC7047B9
:1003D00094450020384600209C450020280100203C
:1003E00018010020024A136801331360704700BFF0
:1003F0009445002003694268816891608268416881
:1004000051605A68824206D0002202611A68013A9D
:100410001A601868704782685A60F5E743684B6055
:100420009A688A609A68516099600861036801332C
:1004300003607047F8B5344B1B68002B5DD1334B1C
:100440001D6801351D60ADB1314B1B68AB424AD907
:100450000027304B1B68DB6A03EB83039A002E4BAB
:100460009B58012B00D901272C4B1B68002B49D02E
:10047000012747E02A4A11682A4B18681060196062
:10048000294A136801331360FFF762FFDCE7012795
:10049000234B1B681B6843B3214B1B68DB68DC687C
:1004A00063689D4226D3261D3046FFF7A3FFA36A4B
:1004B0001BB104F11800FFF79DFFE36A1B490868B0
:1004C00001229A4002430A6003EB83039A003146FB
:1004D00011481044FFF7A2FFE26A0E4B1B68DB6A6B
:1004E0009A42D4D2D4E70027D2E7094B4FF0FF322B
:1004F0001A60AEE7064A1360ABE70D4A1368013392
:10050000136000273846F8BD94450020344600208B
:10051000D84500201801002028010020384600207E
:100520001C01002024010020DC4500209C45002007
:10053000E845002000230361704700F10803436091
:100540004FF0FF328260C360036100230360704795
:1005500038B50024042C15D90E4D2846FFF7EDFFC1
:100560000D4C2046FFF7E9FF0C48FFF7E6FF0C486B
:10057000FFF7E3FF0B48FFF7E0FF0B4B1D600B4B52
:100580001C6038BD0A4B142000FB0430FFF7D5FF78
:100590000134DFE7A4450020B8450020EC450020E9
:1005A000204600200C4600201C01002024010020D1
:1005B00028010020054B00221A6005490A60054AFF
:1005C0000549116007221A60704700BF10E000E083
:1005D00018E000E014E000E0FF117A0008B54FF0E9
:1005E000BF0383F31188BFF36F8FBFF34F8FFFF704
:1005F00021FF18B1034B4FF080521A60002383F3A0
:10060000118808BD04ED00E00000000000000000BB
:10061000EFF30980BFF36F8F0D4B1A6820E9F00FDD
:1006200010602DE908404FF0BF0080F31188FFF7FC
:10063000A5FE4FF0000080F31188BDE8084019685E
:100640000868B0E8F00F80F30988BFF36F8F704738
:1006500018010020034A1368013B13600BB983F3B0
:1006600011887047200000204FF0BF0383F31188EA
:10067000BFF36F8FBFF34F8F024A136801331360CC
:10068000704700BF2000002038B5FFF7EDFF2E4B6C
:100690001A68013A1A601B68002B4DD12B4B1B685E
:1006A0003BB300242A4B1B682BB3294BDB68DC6867
:1006B00004F11800FFF79EFE251D2846FFF79AFE5D
:1006C000E36A2449086801229A4002430A6003EB66
:1006D00083039A00294620481044FFF79FFEE26AF0
:1006E0001E4B1B68DB6A9A42DCD31D4B01221A6049
:1006F000D8E7002421E00CB1FFF72AFE194B1C6853
:1007000074B9174B1B68E3B1174B4FF080521A6056
:10071000BFF34F8FBFF36F8F01240EE0013C07D072
:10072000FFF788FE0028F9D00D4B01221A60F5E78B
:100730000C4B00221A60E4E70024FFF78BFF2046F1
:1007400038BD0024F9E700BF944500208C45002007
:10075000EC4500209C4500202801002018010020C5
:1007600038460020E845002004ED00E010B50446BE
:10077000FFF77AFF204A1368013313601F4B1B6891
:1007800063BB1E4B1C601368012B01D1FFF7E0FE19
:100790001B4A136801331360E26A1A49086801238F
:1007A000934003430B60211D174B142000FB0230C4
:1007B000FFF734FEFFF74EFF144B1B686BB10F4B76
:1007C0001B68DA6AE36A9A4207D2114B4FF08052F3
:1007D0001A60BFF34F8FBFF36F8F10BD0B4B1B68B9
:1007E000002BD5D1054B1B68DA6AE36A9A42CFD851
:1007F000024B1C60CCE700BF8C4500201801002094
:10080000984500209C45002028010020004600203B
:1008100004ED00E006480068006880F3088862B6CE
:1008200061B6BFF34F8FBFF36F8F00DF00BF0000D3
:1008300008ED00E0000000000000000000000000E3
:10084000074B19680868B0E8F00F80F30988BFF318
:100850006F8F4FF0000080F311884EF00D0E70473F
:100860001801002082B0002301934FF0BF0383F3EF
:100870001188BFF36F8FBFF34F8F019B002BFCD00C
:1008800002B0704710B50B4B1A6842F47F021A6031
:100890001A6842F07F421A60FFF78CFE0024064B74
:1008A0001C60FFF7B7FFFFF769FDFFF7DBFF20468E
:1008B00010BD00BF20ED00E0200000204FF080734D
:1008C00040F8043C21F0010140F8081C034B40F8BB
:1008D0000C3C40F8202C4038704700BF65080008E9
:1008E0002DE9F04780469946089D099F0A9C266B92
:1008F00002F18042013A06EB820626F0070691BB20
:10090000002384F834300BE0D056E11881F834002D
:10091000D15611B101330F2BF6D9002384F843309F
:10092000042D00D90425E56265644FF0000AC4F87F
:1009300048A0201DFFF7FEFD04F11800FFF7FAFDA7
:100940002461C5F10505A5616462C4F84CA084F872
:1009500050A04A4641463046FFF7B0FF206007B13D
:100960003C60BDE8F0870A460023D4E710B4134A80
:1009700000E01A4613688342FBD35168541884423E
:1009800009D041684418A3420AD00360904200D0C5
:10099000106010BC70474068014451601046F0E799
:1009A000074C2468A34206D05B6819444160136871
:1009B0001B680360EAE70460E8E700BF0446002024
:1009C00020010020124A12F0070F1ED0D11D21F085
:1009D0000701C1F5884313440A460E48026000210E
:1009E00041601344083B23F007030B480360596040
:1009F0001960991A51601360084B1960084B19600F
:100A0000084B4FF000421A6070474FF48843E4E708
:100A10008C0100200446002020010020D445002045
:100A2000CC450020A045002018B338B50446A0F1FD
:100A3000080550F8042C0F4909680A4202D050F802
:100A4000080C00B138BD22EA010244F8042CFFF77B
:100A5000C9FC54F8041C084A13680B441360284668
:100A6000FFF784FF054A136801331360FFF70CFE9C
:100A7000E8E77047A0450020CC450020E445002071
:100A800010B50446006BFFF7CFFF2046FFF7CCFF01
:100A900010BD00000F4B1B68D3B110B5FFF7E4FD8C
:100AA0000D4BDB68DC68201DFFF7A4FC0B4A1368C4
:100AB000013B1360074A1368013B1360FFF7CAFD4F
:100AC0002046FFF7DDFF034B1B68002BE6D110BD6E
:100AD000704700BF90450020204600208C45002034
:100AE00008B5FFF7D7FF064B1B68012BF9D9054B5B
:100AF0004FF080521A60BFF34F8FBFF36F8FF0E754
:100B00002801002004ED00E070B50446FFF76AFC00
:100B1000294B1B680BB9FFF755FF284B1B681C427C
:100B200042D134B1083414F0070F02D024F0070486
:100B30000834002C3AD0224B1B68A34238D3214BF7
:100B40001D686A68A24202D22A68002A29D11A4A7C
:100B50001268AA422ED01E6808362A681A606B688E
:100B60001B1B102B04D9281943606C60FFF7FEFE95
:100B70006A6813490B689B1A0B60134909688B421A
:100B800001D211490B600D4B1B6813436B600023AE
:100B90002B600E4A136801331360FFF775FD304672
:100BA00070BD2B461546CCE70026F6E70026F4E795
:100BB0000026F2E70026F0E720010020A0450020F3
:100BC000CC45002004460020D4450020E04500200C
:100BD0002DE9F04385B007468846154699469000B2
:100BE000FFF792FFF8B106465420FFF78DFF044649
:100BF000A8B10663D4B10023039302940D9B019323
:100C00000C9B00934B462A4641463846FFF768FE48
:100C10002046FFF7ABFD012005B0BDE8F08330466C
:100C2000FFF702FFE6E74FF0FF30F5E74FF0FF3048
:100C3000F2E7000000B583B0104B0193002300934E
:100C400080220F490F48FFF7C3FF012813D14FF04F
:100C5000BF0383F31188BFF36F8FBFF34F8F0A4B2E
:100C60004FF0FF321A60094B01221A60084B002234
:100C70001A60FFF707FE03B05DF804FBD0450020C3
:100C8000B41C0008E10A0008D845002000460020F6
:100C9000344600201F291CD801280BD010B102288F
:100CA00010D070470B4A1068012303FA01F1014389
:100CB00011607047084A1068012303FA01F10143EB
:100CC00011607047054A1068012303FA01F10143DE
:100CD00011607047141002401C10024018100240AE
:100CE000034B81221A60043300221A60704700BF50
:100CF0000010024010B4012819D018B1022831D0D8
:100D000010BC7047012A0AD0002AF9D12348036891
:100D1000012202FA01F123EA01010160F0E71F4A12
:100D20001068012303FA01F101431160E8E7012A89
:100D30000ED0002AE4D11A480268012303FA01F414
:100D400022EA0402026010318B40164A1360D7E792
:100D500013480268012303FA01F10A430260124BAF
:100D60001960CDE7012A0FD0002AC9D10F480268C7
:100D7000012303FA01F422EA04020260103103FAAB
:100D800001F10B4B1960BBE708480268012303FA25
:100D900001F10A430260074B1960B1E70C080140FA
:100DA0000C0C0140140C0140100C01400C100140CF
:100DB000141001401010014008B501220D2102203D
:100DC000FFF798FFF9E708B500220D210220FFF791
:100DD00091FFF9E710B4012827D018B1022847D0B5
:100DE00010BC704707290DD8324C236889000F20AA
:100DF000884023EA00032360206802FA01F10143DE
:100E00002160EDE70F29EBD8A1F10800C0B22A4C10
:100E1000236880000F21814023EA010323602168B9
:100E200002FA00F008432060DAE707290DD8234CC6
:100E3000236889000F20884023EA00032360236889
:100E400002FA01F119432160CAE70F29C8D8A1F1BC
:100E50000803DBB21A4C21689B000F20984021EA5E
:100E600000012160216802FA03F30B432360B7E716
:100E700007290DD8134C236889000F20884023EAE6
:100E800000032360236802FA01F119432160A7E7F8
:100E90000F29A5D80839C9B20B4C236889000F2047
:100EA000884023EA00032360236802FA01F1194312
:100EB000216095E70008014004080140000C014052
:100EC000040C0140001001400410014000B583B043
:100ED000FFF706FF04210220FFF7DCFE02220D21AE
:100EE0001046FFF777FF00220D210220FFF702FFD7
:100EF00000240194012500952346802207490848D3
:100F0000FFF766FE019400952346802205490648B6
:100F1000FFF75EFEFFF78EFEFEE700BF801C0008B5
:100F2000B90D0008841C0008C70D000882B000231A
:100F3000019300932C4A136843F4803313602A4BC7
:100F40001B6803F400330093019B01330193009B62
:100F50001BB9019BB3F5A06FF1D1234B1B6813F4B0
:100F6000003F06D001230093009B012B04D002B068
:100F7000704700230093F7E71C4B1A6842F01002F9
:100F80001A601A6822F003021A601A6842F002021C
:100F90001A60A3F580535A685A605A685A605A68B2
:100FA00042F480625A605A6822F47C125A605A688D
:100FB00042F4E8125A601A6842F080721A600A4BD2
:100FC0001B6813F0007FFAD0074B5A6822F0030227
:100FD0005A605A6842F002025A60034B5B6803F0A1
:100FE0000C03082BF9D1C2E7001002400020024098
:100FF00008B5FFF79BFF08BD204B5B6803F00C03AF
:10100000042B12D0082B14D0002B32D11C4B1D4ABC
:101010001A601A4B5B68C3F303131B4AD35CDAB242
:1010200017490B68D3400B607047154B154A1A607F
:10103000EFE7124A53685268C3F38343023312F452
:10104000803F05D1114A02FB03F30D4A1360E0E72C
:101050000A4A526812F4003F05D00C4A02FB03F31F
:10106000074A1360D5E7074A02FB03F3044A1360FB
:10107000CFE7034B034A1A60CBE700BF00100240E2
:101080001400002000127A000400002000093D0036
:1010900008B5104B1A6842F001021A6059680E4AEE
:1010A0000A405A601A6822F0847222F480321A6070
:1010B0001A6822F480221A605A6822F4FE025A60EA
:1010C0004FF41F029A60FFF793FF044B4FF000624A
:1010D0009A6008BD001002400000FFF800ED00E03B
:1010E00083691A888A4207D10268033A012A05D81F
:1010F0000233836101207047002070470020704751
:1011000008B5FFF779FF08BD08B5FFF7C1FF024A30
:10111000024B9A6008BD00BF0000000800ED00E02F
:101120002DE9F04385B004460F4643560BB10E46F9
:101130001EE0042528462146ABBE0446384605B0CD
:10114000BDE8F08314F9011B04AA1A4402F8101C2C
:101150000133AB42F6D304AA1344002203F8102C47
:101160004FF00408E94640464946ABBE8046761B30
:10117000002EE3D03546102E28BF10250023E8E7C7
:1011800008B5FFF7CDFF08BD01230360014B0B60DD
:10119000704700BF180000200FB400B583B004AB47
:1011A00053F8042B01938021064800F0E7F800284B
:1011B00003DD01460348FFF7E3FF03B05DF804EBEE
:1011C00004B0704790000020F8B504460D4617465D
:1011D0001E462748FFF7E0FF21682648FFF7DCFF9F
:1011E00061682548FFF7D8FFA1682448FFF7D4FFBE
:1011F000E1682348FFF7D0FF21692248FFF7CCFFC1
:1012000061692148FFF7C8FFA1692048FFF7C4FFC3
:10121000E1691F48FFF7C0FF1E48FFF7BDFF2946E1
:101220001D48FFF7B9FF1D4CE16A1D48FFF7B4FFE9
:10123000216B1C48FFF7B0FFE16B1B48FFF7ACFFC9
:1012400015F0800F0AD115F4004F0CD11748FFF7A5
:10125000A3FF06991648FFF79FFFF8BD39461548CA
:10126000FFF79AFFEFE731461348FFF795FFEDE7E9
:10127000641B0008741B0008841B0008941B0008F2
:10128000A41B0008B41B0008C41B0008D41B0008E2
:10129000E41B0008F41B0008001C000800ED00E03F
:1012A000101C0008201C0008301C0008601C0008EE
:1012B000681C0008401C0008501C000808B50346C4
:1012C0000C4A12685AB10B4A1068033323F0030327
:1012D0000344094A934206D8064A136008BD054AEA
:1012E00006491160EFE700F00BF80C2303604FF0A4
:1012F000FF30F3E710010020004C00204C46002096
:10130000014B1868704700BF2400002010B5431E31
:101310000A44914200D110BD11F8014B03F8014F6E
:10132000F7E730B5141E05469BB0184605DA8B2347
:101330004FF0FF302B601BB030BD4FF40273ADF89F
:101340000C300CBF234604F1FF33029305934FF694
:10135000FF7300910491ADF80E3002461E9B694662
:10136000284600F073F8431CBCBF8B232B60002C75
:10137000E1D00022009B1A70DDE7000007B5009362
:1013800013460A46014603480068FFF7CAFF03B048
:101390005DF804FB240000202DE9F0478E688246AA
:1013A0009E420C469046994637D88A8912F4906F2F
:1013B00031D00223256809696F1A656905EB450577
:1013C00095FBF3F509F101033B449D4238BF1D46EF
:1013D000530530D5294600F02BFB064650B90C23A7
:1013E0004FF0FF30CAF80030A38943F04003A381D7
:1013F000BDE8F0873A462169FFF788FFA38923F407
:10140000906343F08003A38126613E4426604E46EC
:101410006561ED1BA5604E4500D94E4632464146FA
:10142000206800F09FFAA36800209B1BA36023683C
:101430001E442660DCE72A4600F054FB06460028DE
:10144000E2D12169504600F0A7FAC8E72DE9F04F34
:101450009DB003938B8980461D060C4616460FD51A
:101460000B696BB9402100F0E3FA2060206128B9D4
:101470000C23C8F800304FF0FF30C7E04023636111
:101480000023099320238DF8293030234FF0010BDE
:101490008DF82A3037463D4615F8013B0BB1252B18
:1014A0003ED1B7EB060A0BD05346324621464046A2
:1014B000FFF772FF013000F0A480099B53440993A9
:1014C0003B78002B00F09D8000234FF0FF32CDE9E8
:1014D0000523049307938DF853301A932F46052262
:1014E00017F8011B4F4800F02FFA049BD0B9D9061A
:1014F00044BF20228DF853201A0744BF2B228DF8B9
:1015000053202A782A2A15D02F4600200A25079A28
:10151000394611F8013B303B092B4DD9B8B10FE0EA
:101520002F46B8E73F4A3D46801A0BFA00F01843B1
:101530000490D3E7039A111D12680391002A01DB7E
:10154000079204E0524243F00203079204933B786F
:101550002E2B0CD17B782A2B33D1039B02371A1DFB
:101560001B680392002BB8BF4FF0FF3305932E4D3D
:1015700003223978284600F0E7F938B14023401BB0
:1015800003FA00F0049B01370343049339780622E1
:1015900026487E1C8DF8281000F0D6F9002838D097
:1015A000234B13BB039B073323F007030833039339
:1015B000099B4B4409936DE705FB023201200F465E
:1015C000A6E700230A25194601370593384610F887
:1015D000012B303A092A03D9002BC8D00591C6E760
:1015E00005FB012101230746F0E703AB00932246E8
:1015F000104B04A94046AFF30080B0F1FF3F814695
:10160000D6D1A3895B063FF536AF09981DB0BDE87A
:10161000F08F03AB00932246064B04A9404600F02E
:1016200081F8EAE7BC1C0008C21C0008C61C0008C0
:1016300000000000991300082DE9F04791461F466D
:101640008A680B6906469342B8BF1346C9F8003052
:1016500091F843200C46DDF8208012B10133C9F81F
:1016600000302368990642BFD9F800300233C9F828
:101670000030256815F0060507D104F1190AE36862
:10168000D9F800209B1AAB4229DC94F84330226839
:10169000003318BF012392062ED404F143023946C9
:1016A0003046C047013021D02368E56803F00603C7
:1016B000042B18BF0025D9F800204FF0000908BFFF
:1016C000AD1AA368226908BF25EAE5759342C4BF35
:1016D0009B1AED181A344D451AD1002008E0012359
:1016E000524639463046C047013003D14FF0FF30F3
:1016F000BDE8F0870135C2E73020E11881F84300EA
:101700005A1C94F845102244023382F84310C4E76F
:101710000123224639463046C0470130E6D009F160
:101720000109D8E72DE9F04301F1430C0C46097E8D
:1017300085B06E291746064698460C9A00F0B3808D
:1017400022D8632936D00AD8002900F0B980582958
:1017500000F0838004F1420584F8421032E06429ED
:1017600001D06929F6D120681368050603F1040148
:101770002AD51B681160002B03DA2D225B4284F806
:1017800043206F480A2239E0732900F09D8008D871
:101790006F2920D07029DDD1236843F02003236016
:1017A00003E0752917D07829D4D17823654884F8C7
:1017B000453055E0136804F14205191D1B6811609E
:1017C00084F8423001238CE01B6810F0400F116058
:1017D00018BF1BB2CFE713682568181D10602806D4
:1017E00001D51B6802E06806FBD51B886F2914BF72
:1017F0000A2208225248002184F843106568002D0F
:10180000A560C0F29580216821F004012160002BC1
:101810003DD1002D40F08E806546082A0BD123680B
:10182000DB0708D5236962689A42DEBF302305F8DA
:10183000013C05F1FF35ACEB05032361CDF80080D9
:101840003B4603AA21463046FFF7F6FE01304DD154
:101850004FF0FF3005B0BDE8F083394884F84510FB
:10186000136821681D1D1B6815600A060BD5CA0781
:1018700044BF41F0200121601BB9226822F0200200
:1018800022601022B7E74D0648BF9BB2EFE76546DE
:10189000B3FBF2F102FB1133C35C05F8013D0B46CB
:1018A0000029F5D1B9E713682568181D6169106032
:1018B00028061B6801D5196002E06A06FBD519806D
:1018C000002365462361B9E71368191D11601D687F
:1018D00062680021284600F037F808B1401B6060BC
:1018E00063682361002384F84330A7E723692A460D
:1018F00039463046C0470130AAD023689B0713D42D
:10190000E068039B9842B8BF1846A3E701234A4604
:1019100039463046C04701309AD00135E368039A12
:101920009B1AAB42F2DCEBE7002504F11909F5E75D
:10193000002BACD1037804F1420584F842306CE707
:10194000CD1C0008DE1C000810B5C9B2024490424C
:10195000034601D1002303E01C7801308C42F6D10C
:10196000184610BD884210B501EB020307D8421E8D
:1019700099420AD011F8014B02F8014FF8E783426F
:10198000F5D98118D21AD34200D110BD13F8014DF8
:1019900001F8014DF7E7000038B50546002943D0AE
:1019A00051F8043C0C1F002BB8BFE41800F0D0F82D
:1019B0001E4A1368104633B9636014602846BDE8B8
:1019C000384000F0C6B8A3420BD921686218934290
:1019D00001BF1A685B685218226063600460EDE71B
:1019E00013465A680AB1A242FAD919685818A04297
:1019F0000BD120680144581882421960DED110686A
:101A00005268014419605A60D8E702D90C232B6050
:101A1000D4E7206821188A4201BF1168526809186A
:101A2000216062605C60C9E738BD00BF3C460020B1
:101A300070B5CD1C25F0030508350C2D38BF0C25DD
:101A4000002D064601DBA94203D90C233360002098
:101A500070BD00F07DF8214A1468214691B9204CF0
:101A600023681BB9304600F063F8206029463046F1
:101A700000F05EF8431C24D10C233046336000F0A4
:101A800068F8E4E70B685B1B18D40B2B0FD90B60CD
:101A9000CC18CD50304600F05CF804F10B00231D4B
:101AA00020F00700C31AD3D05A42E250D0E74B6867
:101AB0008C4216BF636013600C46EBE70C46496826
:101AC000CCE7C41C24F00304A04205D0211A304600
:101AD00000F02EF80130CFD02560DBE73C46002037
:101AE00040460020F8B5074614460E4621B9BDE829
:101AF000F8401146FFF79CBF22B9FFF74DFF25467E
:101B00002846F8BD00F026F8A0420FD221463846FC
:101B1000FFF78EFF05460028F2D031462246FFF738
:101B2000F5FB31463846FFF737FFE9E73546E7E78B
:101B300038B50023054C054608462360FFF7BEFB79
:101B4000431C02D1236803B12B6038BD44460020FA
:101B50007047704751F8043C181F002BBCBF0B584E
:101B6000C0187047537461636B206672616D653A8B
:101B70000A000000205230203D2020253038580A2D
:101B800000000000205231203D2020253038580A26
:101B900000000000205232203D2020253038580A15
:101BA00000000000205233203D2020253038580A04
:101BB0000000000020523132203D20253038580AE4
:101BC00000000000204C52203D2020253038580ACB
:101BD00000000000205043203D2020253038580AC6
:101BE0000000000020505352203D20253038580A74
:101BF000000000004653522F4641523A0A000000AE
:101C00002043465352203D2020253038580A0000FA
:101C10002048465352203D2020253038580A0000E5
:101C20002044465352203D2020253038580A0000D9
:101C30002041465352203D2020253038580A0000CC
:101C4000204D4D464152203D20253038580A000095
:101C50002042464152203D2020253038580A0000BD
:101C60004D6973630A000000204C522F4558435FB2
:101C700052455455524E3D20253038580A00000038
:101C80004F4646004F6E00005B55736167654661C5
:101C9000756C745D0A0000005B4275734661756C7B
:101CA000745D0A005B486172644661756C745D0A1C
:101CB0000000000049444C4500000000232D302B5B
:101CC0002000686C4C00656667454647003031323D
:101CD0003334353637383941424344454600303194
:0F1CE000323334353637383961626364656600F4
:101CF00078563412000000000000000001020304C6
:101D00000607080900A24A04140100200000000090
:101D1000AAAAAAAA280000200000000000000000D3
:101D200000000000000000000000000000000000B3
:101D300000000000000000000000000000000000A3
:101D40000000000000000000000000000000000093
:101D50000000000000000000000000000000000083
:101D60000000000000000000000000000000000073
:0C1D7000000000000000000032547698D3
:0400000508000221CC
:00000001FF
